{
  "contractName": "Permissions",
  "abi": [
    {
      "anonymous": false,
      "inputs": [
        {
          "indexed": false,
          "name": "emrId",
          "type": "uint256"
        },
        {
          "indexed": false,
          "name": "writer",
          "type": "address"
        },
        {
          "indexed": false,
          "name": "owner",
          "type": "address"
        },
        {
          "indexed": false,
          "name": "typeEmr",
          "type": "uint8"
        },
        {
          "indexed": false,
          "name": "statusEmr",
          "type": "uint8"
        },
        {
          "indexed": false,
          "name": "time",
          "type": "string"
        },
        {
          "indexed": false,
          "name": "data",
          "type": "string"
        }
      ],
      "name": "EmrAdded",
      "type": "event",
      "signature": "0x688cd38461ddfe0f8ff8d7b53f7cc94b5bfb4aa9f2bc011a288bdea2332f18e5"
    },
    {
      "anonymous": false,
      "inputs": [
        {
          "indexed": false,
          "name": "owner",
          "type": "address"
        },
        {
          "indexed": false,
          "name": "serviceProvider",
          "type": "address"
        },
        {
          "indexed": false,
          "name": "permission",
          "type": "bool"
        }
      ],
      "name": "ServiceProviderPermissionCall",
      "type": "event",
      "signature": "0x44abdc83d60e0d34e010c3e3eb9c5f2dea5962714bcf57dcd99481dc143a0f29"
    },
    {
      "constant": false,
      "inputs": [
        {
          "name": "owner",
          "type": "address"
        },
        {
          "name": "typeEmr",
          "type": "uint8"
        },
        {
          "name": "statuseEmr",
          "type": "uint8"
        },
        {
          "name": "time",
          "type": "string"
        },
        {
          "name": "data",
          "type": "string"
        }
      ],
      "name": "addEmr",
      "outputs": [],
      "payable": false,
      "stateMutability": "nonpayable",
      "type": "function",
      "signature": "0x31a4a7cc"
    },
    {
      "constant": true,
      "inputs": [
        {
          "name": "user",
          "type": "address"
        }
      ],
      "name": "getMrc",
      "outputs": [
        {
          "components": [
            {
              "name": "emrId",
              "type": "uint256"
            },
            {
              "name": "writer",
              "type": "address"
            },
            {
              "name": "owner",
              "type": "address"
            },
            {
              "name": "typeEmr",
              "type": "uint8"
            },
            {
              "name": "statusEmr",
              "type": "uint8"
            },
            {
              "name": "time",
              "type": "string"
            },
            {
              "name": "data",
              "type": "string"
            }
          ],
          "name": "",
          "type": "tuple[]"
        }
      ],
      "payable": false,
      "stateMutability": "view",
      "type": "function",
      "signature": "0x2f845bab"
    },
    {
      "constant": false,
      "inputs": [
        {
          "name": "serviceProvider",
          "type": "address"
        }
      ],
      "name": "giveAccessToServiceProvider",
      "outputs": [],
      "payable": false,
      "stateMutability": "nonpayable",
      "type": "function",
      "signature": "0x5d0e7883"
    },
    {
      "constant": false,
      "inputs": [
        {
          "name": "serviceProvider",
          "type": "address"
        }
      ],
      "name": "revokeAccessFromDoctor",
      "outputs": [],
      "payable": false,
      "stateMutability": "nonpayable",
      "type": "function",
      "signature": "0x629e559d"
    },
    {
      "constant": true,
      "inputs": [],
      "name": "getServiceProviderPermissions",
      "outputs": [
        {
          "name": "",
          "type": "address[]"
        }
      ],
      "payable": false,
      "stateMutability": "view",
      "type": "function",
      "signature": "0x0b2e898b"
    }
  ],
  "bytecode": "0x608060405234801561001057600080fd5b50611d70806100206000396000f3fe60806040526004361061006d576000357c0100000000000000000000000000000000000000000000000000000000900463ffffffff1680630b2e898b146100725780632f845bab1461009d57806331a4a7cc146100da5780635d0e788314610103578063629e559d1461012c575b600080fd5b34801561007e57600080fd5b50610087610155565b6040516100949190611997565b60405180910390f35b3480156100a957600080fd5b506100c460048036036100bf91908101906114c8565b610220565b6040516100d191906119b9565b60405180910390f35b3480156100e657600080fd5b5061010160048036036100fc91908101906114f1565b6106a3565b005b34801561010f57600080fd5b5061012a600480360361012591908101906114c8565b610b47565b005b34801561013857600080fd5b50610153600480360361014e91908101906114c8565b610df6565b005b6060600160003373ffffffffffffffffffffffffffffffffffffffff1673ffffffffffffffffffffffffffffffffffffffff16815260200190815260200160002080548060200260200160405190810160405280929190818152602001828054801561021657602002820191906000526020600020905b8160009054906101000a900473ffffffffffffffffffffffffffffffffffffffff1673ffffffffffffffffffffffffffffffffffffffff16815260200190600101908083116101cc575b5050505050905090565b60606000339050600080905060008090505b600160008673ffffffffffffffffffffffffffffffffffffffff1673ffffffffffffffffffffffffffffffffffffffff16815260200190815260200160002080549050811015610338578273ffffffffffffffffffffffffffffffffffffffff16600160008773ffffffffffffffffffffffffffffffffffffffff1673ffffffffffffffffffffffffffffffffffffffff168152602001908152602001600020828154811015156102df57fe5b9060005260206000200160009054906101000a900473ffffffffffffffffffffffffffffffffffffffff1673ffffffffffffffffffffffffffffffffffffffff16141561032b57600191505b8080600101915050610232565b508373ffffffffffffffffffffffffffffffffffffffff168273ffffffffffffffffffffffffffffffffffffffff1614806103705750805b15156103b1576040517f08c379a00000000000000000000000000000000000000000000000000000000081526004016103a8906119db565b60405180910390fd5b6000808573ffffffffffffffffffffffffffffffffffffffff1673ffffffffffffffffffffffffffffffffffffffff168152602001908152602001600020805480602002602001604051908101604052809291908181526020016000905b82821015610696578382906000526020600020906005020160e06040519081016040529081600082015481526020016001820160009054906101000a900473ffffffffffffffffffffffffffffffffffffffff1673ffffffffffffffffffffffffffffffffffffffff1673ffffffffffffffffffffffffffffffffffffffff1681526020016002820160009054906101000a900473ffffffffffffffffffffffffffffffffffffffff1673ffffffffffffffffffffffffffffffffffffffff1673ffffffffffffffffffffffffffffffffffffffff1681526020016002820160149054906101000a900460ff16600981111561050757fe5b600981111561051257fe5b81526020016002820160159054906101000a900460ff16600281111561053457fe5b600281111561053f57fe5b8152602001600382018054600181600116156101000203166002900480601f0160208091040260200160405190810160405280929190818152602001828054600181600116156101000203166002900480156105dc5780601f106105b1576101008083540402835291602001916105dc565b820191906000526020600020905b8154815290600101906020018083116105bf57829003601f168201915b50505050508152602001600482018054600181600116156101000203166002900480601f01602080910402602001604051908101604052809291908181526020018280546001816001161561010002031660029004801561067e5780601f106106535761010080835404028352916020019161067e565b820191906000526020600020905b81548152906001019060200180831161066157829003601f168201915b5050505050815250508152602001906001019061040f565b5050505092505050919050565b60003390508573ffffffffffffffffffffffffffffffffffffffff168173ffffffffffffffffffffffffffffffffffffffff1614151515610719576040517f08c379a0000000000000000000000000000000000000000000000000000000008152600401610710906119fb565b60405180910390fd5b600080905060008090505b600160008973ffffffffffffffffffffffffffffffffffffffff1673ffffffffffffffffffffffffffffffffffffffff1681526020019081526020016000208054905081101561082a578273ffffffffffffffffffffffffffffffffffffffff16600160008a73ffffffffffffffffffffffffffffffffffffffff1673ffffffffffffffffffffffffffffffffffffffff168152602001908152602001600020828154811015156107d157fe5b9060005260206000200160009054906101000a900473ffffffffffffffffffffffffffffffffffffffff1673ffffffffffffffffffffffffffffffffffffffff16141561081d57600191505b8080600101915050610724565b5080151561086d576040517f08c379a000000000000000000000000000000000000000000000000000000000815260040161086490611a3b565b60405180910390fd5b6000808873ffffffffffffffffffffffffffffffffffffffff1673ffffffffffffffffffffffffffffffffffffffff16815260200190815260200160002060e06040519081016040528060016000808c73ffffffffffffffffffffffffffffffffffffffff1673ffffffffffffffffffffffffffffffffffffffff168152602001908152602001600020805490500181526020013373ffffffffffffffffffffffffffffffffffffffff1681526020018973ffffffffffffffffffffffffffffffffffffffff16815260200188600981111561094557fe5b815260200187600281111561095657fe5b815260200186815260200185815250908060018154018082558091505090600182039060005260206000209060050201600090919290919091506000820151816000015560208201518160010160006101000a81548173ffffffffffffffffffffffffffffffffffffffff021916908373ffffffffffffffffffffffffffffffffffffffff16021790555060408201518160020160006101000a81548173ffffffffffffffffffffffffffffffffffffffff021916908373ffffffffffffffffffffffffffffffffffffffff16021790555060608201518160020160146101000a81548160ff02191690836009811115610a4c57fe5b021790555060808201518160020160156101000a81548160ff02191690836002811115610a7557fe5b021790555060a0820151816003019080519060200190610a969291906112a3565b5060c0820151816004019080519060200190610ab39291906112a3565b505050507f688cd38461ddfe0f8ff8d7b53f7cc94b5bfb4aa9f2bc011a288bdea2332f18e560016000808a73ffffffffffffffffffffffffffffffffffffffff1673ffffffffffffffffffffffffffffffffffffffff1681526020019081526020016000208054905001338989898989604051610b369796959493929190611a9b565b60405180910390a150505050505050565b600080905060003390508073ffffffffffffffffffffffffffffffffffffffff168373ffffffffffffffffffffffffffffffffffffffff1614151515610bc2576040517f08c379a0000000000000000000000000000000000000000000000000000000008152600401610bb990611a1b565b60405180910390fd5b60008090505b600160008373ffffffffffffffffffffffffffffffffffffffff1673ffffffffffffffffffffffffffffffffffffffff16815260200190815260200160002080549050811015610cce578173ffffffffffffffffffffffffffffffffffffffff16600160008473ffffffffffffffffffffffffffffffffffffffff1673ffffffffffffffffffffffffffffffffffffffff16815260200190815260200160002082815481101515610c7557fe5b9060005260206000200160009054906101000a900473ffffffffffffffffffffffffffffffffffffffff1673ffffffffffffffffffffffffffffffffffffffff161415610cc157600192505b8080600101915050610bc8565b5081151515610d12576040517f08c379a0000000000000000000000000000000000000000000000000000000008152600401610d0990611a7b565b60405180910390fd5b600160008273ffffffffffffffffffffffffffffffffffffffff1673ffffffffffffffffffffffffffffffffffffffff1681526020019081526020016000208390806001815401808255809150509060018203906000526020600020016000909192909190916101000a81548173ffffffffffffffffffffffffffffffffffffffff021916908373ffffffffffffffffffffffffffffffffffffffff160217905550507f44abdc83d60e0d34e010c3e3eb9c5f2dea5962714bcf57dcd99481dc143a0f2981846001604051610de993929190611960565b60405180910390a1505050565b600033905060007fffffffffffffffffffffffffffffffffffffffffffffffffffffffffffffffff905060005b600160008473ffffffffffffffffffffffffffffffffffffffff1673ffffffffffffffffffffffffffffffffffffffff16815260200190815260200160002080549050811015610f2857600160008473ffffffffffffffffffffffffffffffffffffffff1673ffffffffffffffffffffffffffffffffffffffff16815260200190815260200160002081815481101515610eb957fe5b9060005260206000200160009054906101000a900473ffffffffffffffffffffffffffffffffffffffff1673ffffffffffffffffffffffffffffffffffffffff168473ffffffffffffffffffffffffffffffffffffffff161415610f1b578091505b8080600101915050610e23565b507fffffffffffffffffffffffffffffffffffffffffffffffffffffffffffffffff8114151515610f8e576040517f08c379a0000000000000000000000000000000000000000000000000000000008152600401610f8590611a5b565b60405180910390fd5b606060018060008573ffffffffffffffffffffffffffffffffffffffff1673ffffffffffffffffffffffffffffffffffffffff16815260200190815260200160002080549050036040519080825280602002602001820160405280156110035781602001602082028038833980820191505090505b50905060008090505b81518110156111c15782811415801561102457508281105b156110ef57600160008573ffffffffffffffffffffffffffffffffffffffff1673ffffffffffffffffffffffffffffffffffffffff1681526020019081526020016000208181548110151561107557fe5b9060005260206000200160009054906101000a900473ffffffffffffffffffffffffffffffffffffffff1682828151811015156110ae57fe5b9060200190602002019073ffffffffffffffffffffffffffffffffffffffff16908173ffffffffffffffffffffffffffffffffffffffff16815250506111b4565b600160008573ffffffffffffffffffffffffffffffffffffffff1673ffffffffffffffffffffffffffffffffffffffff1681526020019081526020016000206001820181548110151561113e57fe5b9060005260206000200160009054906101000a900473ffffffffffffffffffffffffffffffffffffffff16828281518110151561117757fe5b9060200190602002019073ffffffffffffffffffffffffffffffffffffffff16908173ffffffffffffffffffffffffffffffffffffffff16815250505b808060010191505061100c565b50600160008473ffffffffffffffffffffffffffffffffffffffff1673ffffffffffffffffffffffffffffffffffffffff168152602001908152602001600020600061120d9190611323565b80600160008573ffffffffffffffffffffffffffffffffffffffff1673ffffffffffffffffffffffffffffffffffffffff1681526020019081526020016000209080519060200190611260929190611344565b507f44abdc83d60e0d34e010c3e3eb9c5f2dea5962714bcf57dcd99481dc143a0f298385600060405161129593929190611960565b60405180910390a150505050565b828054600181600116156101000203166002900490600052602060002090601f016020900481019282601f106112e457805160ff1916838001178555611312565b82800160010185558215611312579182015b828111156113115782518255916020019190600101906112f6565b5b50905061131f91906113ce565b5090565b508054600082559060005260206000209081019061134191906113ce565b50565b8280548282559060005260206000209081019282156113bd579160200282015b828111156113bc5782518260006101000a81548173ffffffffffffffffffffffffffffffffffffffff021916908373ffffffffffffffffffffffffffffffffffffffff16021790555091602001919060010190611364565b5b5090506113ca91906113f3565b5090565b6113f091905b808211156113ec5760008160009055506001016113d4565b5090565b90565b61143391905b8082111561142f57600081816101000a81549073ffffffffffffffffffffffffffffffffffffffff0219169055506001016113f9565b5090565b90565b60006114428235611c45565b905092915050565b60006114568235611c57565b905092915050565b600061146a8235611c70565b905092915050565b600082601f830112151561148557600080fd5b813561149861149382611b45565b611b18565b915080825260208301602083018583830111156114b457600080fd5b6114bf838284611ce3565b50505092915050565b6000602082840312156114da57600080fd5b60006114e884828501611436565b91505092915050565b600080600080600060a0868803121561150957600080fd5b600061151788828901611436565b95505060206115288882890161145e565b94505060406115398882890161144a565b935050606086013567ffffffffffffffff81111561155657600080fd5b61156288828901611472565b925050608086013567ffffffffffffffff81111561157f57600080fd5b61158b88828901611472565b9150509295509295909350565b6115a181611c89565b82525050565b6115b081611bd1565b82525050565b60006115c182611b8b565b8084526020840193506115d383611b71565b60005b82811015611605576115e98683516115a7565b6115f282611bb7565b91506020860195506001810190506115d6565b50849250505092915050565b600061161c82611b96565b8084526020840193508360208202850161163585611b7e565b60005b8481101561166e5783830388526116508383516118ae565b925061165b82611bc4565b9150602088019750600181019050611638565b508196508694505050505092915050565b61168881611be3565b82525050565b61169781611c9b565b82525050565b6116a681611cad565b82525050565b60006116b782611bac565b8084526116cb816020860160208601611cf2565b6116d481611d25565b602085010191505092915050565b60006116ed82611ba1565b808452611701816020860160208601611cf2565b61170a81611d25565b602085010191505092915050565b6000601582527f596f75206e6565646564207065726d697373696f6e00000000000000000000006020830152604082019050919050565b6000601b82527f596f752063616e206e6f742061646420746f20796f757273656c6600000000006020830152604082019050919050565b6000601882527f796f752063616e206e6f742061646420796f757273656c6600000000000000006020830152604082019050919050565b6000601182527f5065726d697373696f6e206e65656465640000000000000000000000000000006020830152604082019050919050565b6000603182527f5468697320736572766963652070726f7669646572206e6f742068617665207060208301527f65726d697373696f6e20616c72656164790000000000000000000000000000006040830152606082019050919050565b6000602782527f736572766963652070726f766964657220686173207065726d697373696f6e2060208301527f616c7265616479000000000000000000000000000000000000000000000000006040830152606082019050919050565b600060e0830160008301516118c66000860182611951565b5060208301516118d960208601826115a7565b5060408301516118ec60408601826115a7565b5060608301516118ff606086018261169d565b506080830151611912608086018261168e565b5060a083015184820360a086015261192a82826116e2565b91505060c083015184820360c086015261194482826116e2565b9150508091505092915050565b61195a81611c3b565b82525050565b600060608201905061197560008301866115a7565b61198260208301856115a7565b61198f604083018461167f565b949350505050565b600060208201905081810360008301526119b181846115b6565b905092915050565b600060208201905081810360008301526119d38184611611565b905092915050565b600060208201905081810360008301526119f481611718565b9050919050565b60006020820190508181036000830152611a148161174f565b9050919050565b60006020820190508181036000830152611a3481611786565b9050919050565b60006020820190508181036000830152611a54816117bd565b9050919050565b60006020820190508181036000830152611a74816117f4565b9050919050565b60006020820190508181036000830152611a9481611851565b9050919050565b600060e082019050611ab0600083018a611951565b611abd6020830189611598565b611aca60408301886115a7565b611ad7606083018761169d565b611ae4608083018661168e565b81810360a0830152611af681856116ac565b905081810360c0830152611b0a81846116ac565b905098975050505050505050565b6000604051905081810181811067ffffffffffffffff82111715611b3b57600080fd5b8060405250919050565b600067ffffffffffffffff821115611b5c57600080fd5b601f19601f8301169050602081019050919050565b6000602082019050919050565b6000602082019050919050565b600081519050919050565b600081519050919050565b600081519050919050565b600081519050919050565b6000602082019050919050565b6000602082019050919050565b6000611bdc82611c1b565b9050919050565b60008115159050919050565b6000600382101515611bfd57fe5b819050919050565b6000600a82101515611c1357fe5b819050919050565b600073ffffffffffffffffffffffffffffffffffffffff82169050919050565b6000819050919050565b6000611c5082611c1b565b9050919050565b6000600382101515611c6857600080fd5b819050919050565b6000600a82101515611c8157600080fd5b819050919050565b6000611c9482611cbf565b9050919050565b6000611ca682611bef565b9050919050565b6000611cb882611c05565b9050919050565b6000611cca82611cd1565b9050919050565b6000611cdc82611c1b565b9050919050565b82818337600083830152505050565b60005b83811015611d10578082015181840152602081019050611cf5565b83811115611d1f576000848401525b50505050565b6000601f19601f830116905091905056fea265627a7a72305820b75e5ff02d93d3f6af53e4e0d439063cb048644a4e114dd9937df98f7ee50d706c6578706572696d656e74616cf50037",
  "source": "//SPDX-License-Identifier: MIT\npragma solidity >=0.5.0;\n//ABIEncoderV2 is needed to return an array from a function. is Experimental!! \npragma experimental ABIEncoderV2;\n\ncontract Permissions {\n\n  enum TypeEmr{\n    LABORATORY_TEST_RESULTS,\n    REFERENCES,\n    MEDICATIONS_AND_PRESCRIPTIONS,\n    IMAGING_TEST_RESULTS,\n    YOUR_DIAGNOSES,\n    YOUR_SENSITIVITY,\n    THE_VACCINES_YOU_DID,\n    MEDICAL_RECOMMENDATIONS,\n    CERTIFICATES_OF_ILLNESS,\n    MEDICAL_INFORMATION_SUMMARY\n  }\n\n  enum StatusEmr {\n    VALID, EXPIRED, BOUGHT\n  }\n\n  struct EMR {\n    uint emrId;\n    address writer;\n    address owner;  \n    TypeEmr typeEmr; \n    StatusEmr statusEmr;\n    string time;\n    string data;\n  }\n\n  event EmrAdded(\n    uint emrId,\n    address writer,\n    address owner, \n    TypeEmr typeEmr, \n    StatusEmr statusEmr,\n    string time,\n    string data\n  );\n\n   event ServiceProviderPermissionCall(\n    address owner,\n    address serviceProvider,\n    bool permission\n  );\n\n\n  /* Every user has a list of EMRs. */\n  mapping (address => EMR[]) private emrs;\n\n   /**\n   * A user can specify, which service providers are allowed to view their medical records.\n   * Access is granted, when the user adds his address to service Providers list of patients.\n   * As soon as the user address is removed from the list, access for the service provider is revoked.\n   * mapping: patientAddress -> ServiceProviderAddresses\n   */\n  mapping (address => address[]) private serviceProvidersPermissions;\n\n  /**\n   * Add a medical record.\n   * Returns true if add or false if not.\n   */\n  function addEmr(address owner, TypeEmr typeEmr, StatusEmr statuseEmr, string memory time, string memory data) public {\n    address writer = msg.sender;\n\n    // check if owner != writer \n    require(writer != owner,'You can not add to yourself');\n    // check if service provider as a permission \n    bool serviceProviderPermission = false;\n\n    for(uint i=0; i<serviceProvidersPermissions[owner].length; i++){\n      if(serviceProvidersPermissions[owner][i] == writer){\n        serviceProviderPermission = true;\n      }\n    }\n    require(serviceProviderPermission,'Permission needed');\n    emrs[owner].push(EMR(emrs[owner].length +1,msg.sender, owner, typeEmr, statuseEmr, time, data));\n    //trigger \n    emit EmrAdded(emrs[owner].length +1,msg.sender, owner, typeEmr, statuseEmr, time, data); // call the event\n  }\n \n  /**\n   * Get all medical records of a user.\n   */\n  function getMrc(address user) public view returns (EMR[] memory) {\n    address from = msg.sender;\n    bool serviceProviderPermission = false;\n\n    for(uint i=0; i<serviceProvidersPermissions[user].length; i++){\n      if(serviceProvidersPermissions[user][i] == from){\n        serviceProviderPermission = true;\n      }\n    }\n    // get MrC of the user, if owner is the ask or the ask get permission from the owner\n    require(from == user || serviceProviderPermission, \"You needed permission\");\n    return emrs[user];\n  }\n\n  /**\n   * Allow a service provider to view all your documents.\n   */\n  function giveAccessToServiceProvider(address serviceProvider) public {\n    bool serviceProviderPermissionExist = false;\n    address from = msg.sender;\n\n    require(serviceProvider != from,'you can not add yourself');\n    \n    for(uint i=0; i<serviceProvidersPermissions[from].length; i++){\n      if(serviceProvidersPermissions[from][i] == from){\n        serviceProviderPermissionExist = true;\n      }\n    }\n    require(!serviceProviderPermissionExist,'service provider has permission already');\n    serviceProvidersPermissions[from].push(serviceProvider);\n    emit ServiceProviderPermissionCall(from,serviceProvider,true); //call event\n  }\n\n  /**\n   * Revoke a service provider access to your documents.\n   */\n  function revokeAccessFromDoctor(address serviceProvider) public {\n    address from = msg.sender; \n    int indexRemove = -1;\n    for(uint i; i<serviceProvidersPermissions[from].length; i++){\n      if(serviceProvider == serviceProvidersPermissions[from][i]){\n        indexRemove = int(i);\n      }\n    }\n\n    require(indexRemove != -1, 'This service provider not have permission already');\n\n    address[] memory arrayNew = new address[](serviceProvidersPermissions[from].length-1);\n    for (uint i = 0; i<arrayNew.length; i++){\n      if(i != uint(indexRemove) && i< uint(indexRemove)){\n        arrayNew[i] = serviceProvidersPermissions[from][i];\n      }\n      else {\n        arrayNew[i] = serviceProvidersPermissions[from][i+1];\n      }\n    }\n    delete serviceProvidersPermissions[from];\n    serviceProvidersPermissions[from] = arrayNew;\n    emit ServiceProviderPermissionCall(from,serviceProvider,false); //call event\n  }\n\n  /**\n   * Returns all the service provider addresses that the patient gave access.\n   */\n  function getServiceProviderPermissions() public view returns (address[] memory) {\n    return serviceProvidersPermissions[msg.sender];\n  }\n} // end of contruct ",
  "sourcePath": "C:/Users/shaii/Desktop/projects/MrC/src/contracts/Permissions.sol",
  "compiler": {
    "name": "solc",
    "version": "0.5.0+commit.1d4f565a.Emscripten.clang"
  },
  "schemaVersion": "3.0.2",
  "updatedAt": "2021-04-28T10:17:16.294Z",
  "devdoc": {
    "methods": {}
  },
  "userdoc": {
    "methods": {
      "addEmr(address,uint8,uint8,string,string)": {
        "notice": "Add a medical record. Returns true if add or false if not."
      },
      "getMrc(address)": {
        "notice": "Get all medical records of a user."
      },
      "getServiceProviderPermissions()": {
        "notice": "Returns all the service provider addresses that the patient gave access."
      },
      "giveAccessToServiceProvider(address)": {
        "notice": "Allow a service provider to view all your documents."
      },
      "revokeAccessFromDoctor(address)": {
        "notice": "Revoke a service provider access to your documents."
      }
    }
  }
}