{
  "contractName": "Permissions",
  "abi": [
    {
      "anonymous": false,
      "inputs": [
        {
          "indexed": false,
          "name": "emrId",
          "type": "uint256"
        },
        {
          "indexed": false,
          "name": "writer",
          "type": "address"
        },
        {
          "indexed": false,
          "name": "owner",
          "type": "address"
        },
        {
          "indexed": false,
          "name": "typeEmr",
          "type": "uint8"
        },
        {
          "indexed": false,
          "name": "statusEmr",
          "type": "uint8"
        },
        {
          "indexed": false,
          "name": "time",
          "type": "string"
        },
        {
          "indexed": false,
          "name": "data",
          "type": "string"
        }
      ],
      "name": "EmrAdded",
      "type": "event",
      "signature": "0x688cd38461ddfe0f8ff8d7b53f7cc94b5bfb4aa9f2bc011a288bdea2332f18e5"
    },
    {
      "anonymous": false,
      "inputs": [
        {
          "indexed": false,
          "name": "owner",
          "type": "address"
        },
        {
          "indexed": false,
          "name": "serviceProvider",
          "type": "address"
        },
        {
          "indexed": false,
          "name": "permission",
          "type": "bool"
        }
      ],
      "name": "ServiceProviderPermissionCall",
      "type": "event",
      "signature": "0x44abdc83d60e0d34e010c3e3eb9c5f2dea5962714bcf57dcd99481dc143a0f29"
    },
    {
      "constant": false,
      "inputs": [
        {
          "name": "owner",
          "type": "address"
        },
        {
          "name": "typeEmr",
          "type": "uint8"
        },
        {
          "name": "statuseEmr",
          "type": "uint8"
        },
        {
          "name": "time",
          "type": "string"
        },
        {
          "name": "data",
          "type": "string"
        }
      ],
      "name": "addEmr",
      "outputs": [],
      "payable": false,
      "stateMutability": "nonpayable",
      "type": "function",
      "signature": "0x31a4a7cc"
    },
    {
      "constant": true,
      "inputs": [
        {
          "name": "user",
          "type": "address"
        }
      ],
      "name": "getMrc",
      "outputs": [
        {
          "components": [
            {
              "name": "emrId",
              "type": "uint256"
            },
            {
              "name": "writer",
              "type": "address"
            },
            {
              "name": "owner",
              "type": "address"
            },
            {
              "name": "typeEmr",
              "type": "uint8"
            },
            {
              "name": "statusEmr",
              "type": "uint8"
            },
            {
              "name": "time",
              "type": "string"
            },
            {
              "name": "data",
              "type": "string"
            }
          ],
          "name": "",
          "type": "tuple[]"
        }
      ],
      "payable": false,
      "stateMutability": "view",
      "type": "function",
      "signature": "0x2f845bab"
    },
    {
      "constant": false,
      "inputs": [
        {
          "name": "serviceProvider",
          "type": "address"
        }
      ],
      "name": "giveAccessToServiceProvider",
      "outputs": [],
      "payable": false,
      "stateMutability": "nonpayable",
      "type": "function",
      "signature": "0x5d0e7883"
    },
    {
      "constant": false,
      "inputs": [
        {
          "name": "serviceProvider",
          "type": "address"
        }
      ],
      "name": "revokeAccessFromDoctor",
      "outputs": [],
      "payable": false,
      "stateMutability": "nonpayable",
      "type": "function",
      "signature": "0x629e559d"
    },
    {
      "constant": true,
      "inputs": [],
      "name": "getServiceProviderPermissions",
      "outputs": [
        {
          "name": "",
          "type": "address[]"
        }
      ],
      "payable": false,
      "stateMutability": "view",
      "type": "function",
      "signature": "0x0b2e898b"
    },
    {
      "constant": true,
      "inputs": [
        {
          "name": "patient",
          "type": "address"
        }
      ],
      "name": "havePermission",
      "outputs": [
        {
          "name": "",
          "type": "bool"
        }
      ],
      "payable": false,
      "stateMutability": "view",
      "type": "function",
      "signature": "0x8d30ba9f"
    }
  ],
  "bytecode": "0x608060405234801561001057600080fd5b50611eed806100206000396000f3fe608060405260043610610078576000357c0100000000000000000000000000000000000000000000000000000000900463ffffffff1680630b2e898b1461007d5780632f845bab146100a857806331a4a7cc146100e55780635d0e78831461010e578063629e559d146101375780638d30ba9f14610160575b600080fd5b34801561008957600080fd5b5061009261019d565b60405161009f9190611af9565b60405180910390f35b3480156100b457600080fd5b506100cf60048036036100ca919081019061162a565b610268565b6040516100dc9190611b1b565b60405180910390f35b3480156100f157600080fd5b5061010c60048036036101079190810190611653565b6106eb565b005b34801561011a57600080fd5b506101356004803603610130919081019061162a565b610b8f565b005b34801561014357600080fd5b5061015e6004803603610159919081019061162a565b610e3e565b005b34801561016c57600080fd5b506101876004803603610182919081019061162a565b6112eb565b6040516101949190611b3d565b60405180910390f35b6060600160003373ffffffffffffffffffffffffffffffffffffffff1673ffffffffffffffffffffffffffffffffffffffff16815260200190815260200160002080548060200260200160405190810160405280929190818152602001828054801561025e57602002820191906000526020600020905b8160009054906101000a900473ffffffffffffffffffffffffffffffffffffffff1673ffffffffffffffffffffffffffffffffffffffff1681526020019060010190808311610214575b5050505050905090565b60606000339050600080905060008090505b600160008673ffffffffffffffffffffffffffffffffffffffff1673ffffffffffffffffffffffffffffffffffffffff16815260200190815260200160002080549050811015610380578273ffffffffffffffffffffffffffffffffffffffff16600160008773ffffffffffffffffffffffffffffffffffffffff1673ffffffffffffffffffffffffffffffffffffffff1681526020019081526020016000208281548110151561032757fe5b9060005260206000200160009054906101000a900473ffffffffffffffffffffffffffffffffffffffff1673ffffffffffffffffffffffffffffffffffffffff16141561037357600191505b808060010191505061027a565b508373ffffffffffffffffffffffffffffffffffffffff168273ffffffffffffffffffffffffffffffffffffffff1614806103b85750805b15156103f9576040517f08c379a00000000000000000000000000000000000000000000000000000000081526004016103f090611b58565b60405180910390fd5b6000808573ffffffffffffffffffffffffffffffffffffffff1673ffffffffffffffffffffffffffffffffffffffff168152602001908152602001600020805480602002602001604051908101604052809291908181526020016000905b828210156106de578382906000526020600020906005020160e06040519081016040529081600082015481526020016001820160009054906101000a900473ffffffffffffffffffffffffffffffffffffffff1673ffffffffffffffffffffffffffffffffffffffff1673ffffffffffffffffffffffffffffffffffffffff1681526020016002820160009054906101000a900473ffffffffffffffffffffffffffffffffffffffff1673ffffffffffffffffffffffffffffffffffffffff1673ffffffffffffffffffffffffffffffffffffffff1681526020016002820160149054906101000a900460ff16600981111561054f57fe5b600981111561055a57fe5b81526020016002820160159054906101000a900460ff16600281111561057c57fe5b600281111561058757fe5b8152602001600382018054600181600116156101000203166002900480601f0160208091040260200160405190810160405280929190818152602001828054600181600116156101000203166002900480156106245780601f106105f957610100808354040283529160200191610624565b820191906000526020600020905b81548152906001019060200180831161060757829003601f168201915b50505050508152602001600482018054600181600116156101000203166002900480601f0160208091040260200160405190810160405280929190818152602001828054600181600116156101000203166002900480156106c65780601f1061069b576101008083540402835291602001916106c6565b820191906000526020600020905b8154815290600101906020018083116106a957829003601f168201915b50505050508152505081526020019060010190610457565b5050505092505050919050565b60003390508573ffffffffffffffffffffffffffffffffffffffff168173ffffffffffffffffffffffffffffffffffffffff1614151515610761576040517f08c379a000000000000000000000000000000000000000000000000000000000815260040161075890611b78565b60405180910390fd5b600080905060008090505b600160008973ffffffffffffffffffffffffffffffffffffffff1673ffffffffffffffffffffffffffffffffffffffff16815260200190815260200160002080549050811015610872578273ffffffffffffffffffffffffffffffffffffffff16600160008a73ffffffffffffffffffffffffffffffffffffffff1673ffffffffffffffffffffffffffffffffffffffff1681526020019081526020016000208281548110151561081957fe5b9060005260206000200160009054906101000a900473ffffffffffffffffffffffffffffffffffffffff1673ffffffffffffffffffffffffffffffffffffffff16141561086557600191505b808060010191505061076c565b508015156108b5576040517f08c379a00000000000000000000000000000000000000000000000000000000081526004016108ac90611bb8565b60405180910390fd5b6000808873ffffffffffffffffffffffffffffffffffffffff1673ffffffffffffffffffffffffffffffffffffffff16815260200190815260200160002060e06040519081016040528060016000808c73ffffffffffffffffffffffffffffffffffffffff1673ffffffffffffffffffffffffffffffffffffffff168152602001908152602001600020805490500181526020013373ffffffffffffffffffffffffffffffffffffffff1681526020018973ffffffffffffffffffffffffffffffffffffffff16815260200188600981111561098d57fe5b815260200187600281111561099e57fe5b815260200186815260200185815250908060018154018082558091505090600182039060005260206000209060050201600090919290919091506000820151816000015560208201518160010160006101000a81548173ffffffffffffffffffffffffffffffffffffffff021916908373ffffffffffffffffffffffffffffffffffffffff16021790555060408201518160020160006101000a81548173ffffffffffffffffffffffffffffffffffffffff021916908373ffffffffffffffffffffffffffffffffffffffff16021790555060608201518160020160146101000a81548160ff02191690836009811115610a9457fe5b021790555060808201518160020160156101000a81548160ff02191690836002811115610abd57fe5b021790555060a0820151816003019080519060200190610ade929190611405565b5060c0820151816004019080519060200190610afb929190611405565b505050507f688cd38461ddfe0f8ff8d7b53f7cc94b5bfb4aa9f2bc011a288bdea2332f18e560016000808a73ffffffffffffffffffffffffffffffffffffffff1673ffffffffffffffffffffffffffffffffffffffff1681526020019081526020016000208054905001338989898989604051610b7e9796959493929190611c18565b60405180910390a150505050505050565b600080905060003390508073ffffffffffffffffffffffffffffffffffffffff168373ffffffffffffffffffffffffffffffffffffffff1614151515610c0a576040517f08c379a0000000000000000000000000000000000000000000000000000000008152600401610c0190611b98565b60405180910390fd5b60008090505b600160008373ffffffffffffffffffffffffffffffffffffffff1673ffffffffffffffffffffffffffffffffffffffff16815260200190815260200160002080549050811015610d16578173ffffffffffffffffffffffffffffffffffffffff16600160008473ffffffffffffffffffffffffffffffffffffffff1673ffffffffffffffffffffffffffffffffffffffff16815260200190815260200160002082815481101515610cbd57fe5b9060005260206000200160009054906101000a900473ffffffffffffffffffffffffffffffffffffffff1673ffffffffffffffffffffffffffffffffffffffff161415610d0957600192505b8080600101915050610c10565b5081151515610d5a576040517f08c379a0000000000000000000000000000000000000000000000000000000008152600401610d5190611bf8565b60405180910390fd5b600160008273ffffffffffffffffffffffffffffffffffffffff1673ffffffffffffffffffffffffffffffffffffffff1681526020019081526020016000208390806001815401808255809150509060018203906000526020600020016000909192909190916101000a81548173ffffffffffffffffffffffffffffffffffffffff021916908373ffffffffffffffffffffffffffffffffffffffff160217905550507f44abdc83d60e0d34e010c3e3eb9c5f2dea5962714bcf57dcd99481dc143a0f2981846001604051610e3193929190611ac2565b60405180910390a1505050565b600033905060007fffffffffffffffffffffffffffffffffffffffffffffffffffffffffffffffff905060005b600160008473ffffffffffffffffffffffffffffffffffffffff1673ffffffffffffffffffffffffffffffffffffffff16815260200190815260200160002080549050811015610f7057600160008473ffffffffffffffffffffffffffffffffffffffff1673ffffffffffffffffffffffffffffffffffffffff16815260200190815260200160002081815481101515610f0157fe5b9060005260206000200160009054906101000a900473ffffffffffffffffffffffffffffffffffffffff1673ffffffffffffffffffffffffffffffffffffffff168473ffffffffffffffffffffffffffffffffffffffff161415610f63578091505b8080600101915050610e6b565b507fffffffffffffffffffffffffffffffffffffffffffffffffffffffffffffffff8114151515610fd6576040517f08c379a0000000000000000000000000000000000000000000000000000000008152600401610fcd90611bd8565b60405180910390fd5b606060018060008573ffffffffffffffffffffffffffffffffffffffff1673ffffffffffffffffffffffffffffffffffffffff168152602001908152602001600020805490500360405190808252806020026020018201604052801561104b5781602001602082028038833980820191505090505b50905060008090505b81518110156112095782811415801561106c57508281105b1561113757600160008573ffffffffffffffffffffffffffffffffffffffff1673ffffffffffffffffffffffffffffffffffffffff168152602001908152602001600020818154811015156110bd57fe5b9060005260206000200160009054906101000a900473ffffffffffffffffffffffffffffffffffffffff1682828151811015156110f657fe5b9060200190602002019073ffffffffffffffffffffffffffffffffffffffff16908173ffffffffffffffffffffffffffffffffffffffff16815250506111fc565b600160008573ffffffffffffffffffffffffffffffffffffffff1673ffffffffffffffffffffffffffffffffffffffff1681526020019081526020016000206001820181548110151561118657fe5b9060005260206000200160009054906101000a900473ffffffffffffffffffffffffffffffffffffffff1682828151811015156111bf57fe5b9060200190602002019073ffffffffffffffffffffffffffffffffffffffff16908173ffffffffffffffffffffffffffffffffffffffff16815250505b8080600101915050611054565b50600160008473ffffffffffffffffffffffffffffffffffffffff1673ffffffffffffffffffffffffffffffffffffffff16815260200190815260200160002060006112559190611485565b80600160008573ffffffffffffffffffffffffffffffffffffffff1673ffffffffffffffffffffffffffffffffffffffff16815260200190815260200160002090805190602001906112a89291906114a6565b507f44abdc83d60e0d34e010c3e3eb9c5f2dea5962714bcf57dcd99481dc143a0f29838560006040516112dd93929190611ac2565b60405180910390a150505050565b6000806000905060005b600160008573ffffffffffffffffffffffffffffffffffffffff1673ffffffffffffffffffffffffffffffffffffffff168152602001908152602001600020805490508110156113fb57600160008573ffffffffffffffffffffffffffffffffffffffff1673ffffffffffffffffffffffffffffffffffffffff1681526020019081526020016000208181548110151561138b57fe5b9060005260206000200160009054906101000a900473ffffffffffffffffffffffffffffffffffffffff1673ffffffffffffffffffffffffffffffffffffffff163373ffffffffffffffffffffffffffffffffffffffff1614156113ee57600191505b80806001019150506112f5565b5080915050919050565b828054600181600116156101000203166002900490600052602060002090601f016020900481019282601f1061144657805160ff1916838001178555611474565b82800160010185558215611474579182015b82811115611473578251825591602001919060010190611458565b5b5090506114819190611530565b5090565b50805460008255906000526020600020908101906114a39190611530565b50565b82805482825590600052602060002090810192821561151f579160200282015b8281111561151e5782518260006101000a81548173ffffffffffffffffffffffffffffffffffffffff021916908373ffffffffffffffffffffffffffffffffffffffff160217905550916020019190600101906114c6565b5b50905061152c9190611555565b5090565b61155291905b8082111561154e576000816000905550600101611536565b5090565b90565b61159591905b8082111561159157600081816101000a81549073ffffffffffffffffffffffffffffffffffffffff02191690555060010161155b565b5090565b90565b60006115a48235611dc2565b905092915050565b60006115b88235611dd4565b905092915050565b60006115cc8235611ded565b905092915050565b600082601f83011215156115e757600080fd5b81356115fa6115f582611cc2565b611c95565b9150808252602083016020830185838301111561161657600080fd5b611621838284611e60565b50505092915050565b60006020828403121561163c57600080fd5b600061164a84828501611598565b91505092915050565b600080600080600060a0868803121561166b57600080fd5b600061167988828901611598565b955050602061168a888289016115c0565b945050604061169b888289016115ac565b935050606086013567ffffffffffffffff8111156116b857600080fd5b6116c4888289016115d4565b925050608086013567ffffffffffffffff8111156116e157600080fd5b6116ed888289016115d4565b9150509295509295909350565b61170381611e06565b82525050565b61171281611d4e565b82525050565b600061172382611d08565b80845260208401935061173583611cee565b60005b828110156117675761174b868351611709565b61175482611d34565b9150602086019550600181019050611738565b50849250505092915050565b600061177e82611d13565b8084526020840193508360208202850161179785611cfb565b60005b848110156117d05783830388526117b2838351611a10565b92506117bd82611d41565b915060208801975060018101905061179a565b508196508694505050505092915050565b6117ea81611d60565b82525050565b6117f981611e18565b82525050565b61180881611e2a565b82525050565b600061181982611d29565b80845261182d816020860160208601611e6f565b61183681611ea2565b602085010191505092915050565b600061184f82611d1e565b808452611863816020860160208601611e6f565b61186c81611ea2565b602085010191505092915050565b6000601582527f596f75206e6565646564207065726d697373696f6e00000000000000000000006020830152604082019050919050565b6000601b82527f596f752063616e206e6f742061646420746f20796f757273656c6600000000006020830152604082019050919050565b6000601882527f796f752063616e206e6f742061646420796f757273656c6600000000000000006020830152604082019050919050565b6000601182527f5065726d697373696f6e206e65656465640000000000000000000000000000006020830152604082019050919050565b6000603182527f5468697320736572766963652070726f7669646572206e6f742068617665207060208301527f65726d697373696f6e20616c72656164790000000000000000000000000000006040830152606082019050919050565b6000602782527f736572766963652070726f766964657220686173207065726d697373696f6e2060208301527f616c7265616479000000000000000000000000000000000000000000000000006040830152606082019050919050565b600060e083016000830151611a286000860182611ab3565b506020830151611a3b6020860182611709565b506040830151611a4e6040860182611709565b506060830151611a6160608601826117ff565b506080830151611a7460808601826117f0565b5060a083015184820360a0860152611a8c8282611844565b91505060c083015184820360c0860152611aa68282611844565b9150508091505092915050565b611abc81611db8565b82525050565b6000606082019050611ad76000830186611709565b611ae46020830185611709565b611af160408301846117e1565b949350505050565b60006020820190508181036000830152611b138184611718565b905092915050565b60006020820190508181036000830152611b358184611773565b905092915050565b6000602082019050611b5260008301846117e1565b92915050565b60006020820190508181036000830152611b718161187a565b9050919050565b60006020820190508181036000830152611b91816118b1565b9050919050565b60006020820190508181036000830152611bb1816118e8565b9050919050565b60006020820190508181036000830152611bd18161191f565b9050919050565b60006020820190508181036000830152611bf181611956565b9050919050565b60006020820190508181036000830152611c11816119b3565b9050919050565b600060e082019050611c2d600083018a611ab3565b611c3a60208301896116fa565b611c476040830188611709565b611c5460608301876117ff565b611c6160808301866117f0565b81810360a0830152611c73818561180e565b905081810360c0830152611c87818461180e565b905098975050505050505050565b6000604051905081810181811067ffffffffffffffff82111715611cb857600080fd5b8060405250919050565b600067ffffffffffffffff821115611cd957600080fd5b601f19601f8301169050602081019050919050565b6000602082019050919050565b6000602082019050919050565b600081519050919050565b600081519050919050565b600081519050919050565b600081519050919050565b6000602082019050919050565b6000602082019050919050565b6000611d5982611d98565b9050919050565b60008115159050919050565b6000600382101515611d7a57fe5b819050919050565b6000600a82101515611d9057fe5b819050919050565b600073ffffffffffffffffffffffffffffffffffffffff82169050919050565b6000819050919050565b6000611dcd82611d98565b9050919050565b6000600382101515611de557600080fd5b819050919050565b6000600a82101515611dfe57600080fd5b819050919050565b6000611e1182611e3c565b9050919050565b6000611e2382611d6c565b9050919050565b6000611e3582611d82565b9050919050565b6000611e4782611e4e565b9050919050565b6000611e5982611d98565b9050919050565b82818337600083830152505050565b60005b83811015611e8d578082015181840152602081019050611e72565b83811115611e9c576000848401525b50505050565b6000601f19601f830116905091905056fea265627a7a723058200f80fce074fdb1cb2cbfe8a860406b88627332b79ddd07fb19b5a5994cd741fc6c6578706572696d656e74616cf50037",
  "source": "//SPDX-License-Identifier: MIT\npragma solidity >=0.5.0;\n//ABIEncoderV2 is needed to return an array from a function. is Experimental!! \npragma experimental ABIEncoderV2;\n\ncontract Permissions {\n\n  enum TypeEmr{\n    LABORATORY_TEST_RESULTS,\n    REFERENCES,\n    MEDICATIONS_AND_PRESCRIPTIONS,\n    IMAGING_TEST_RESULTS,\n    YOUR_DIAGNOSES,\n    YOUR_SENSITIVITY,\n    THE_VACCINES_YOU_DID,\n    MEDICAL_RECOMMENDATIONS,\n    CERTIFICATES_OF_ILLNESS,\n    MEDICAL_INFORMATION_SUMMARY\n  }\n\n  enum StatusEmr {\n    VALID, EXPIRED, BOUGHT\n  }\n\n  struct EMR {\n    uint emrId;\n    address writer;\n    address owner;  \n    TypeEmr typeEmr; \n    StatusEmr statusEmr;\n    string time;\n    string data;\n  }\n\n  event EmrAdded(\n    uint emrId,\n    address writer,\n    address owner, \n    TypeEmr typeEmr, \n    StatusEmr statusEmr,\n    string time,\n    string data\n  );\n\n   event ServiceProviderPermissionCall(\n    address owner,\n    address serviceProvider,\n    bool permission\n  );\n\n\n  /* Every user has a list of EMRs. */\n  mapping (address => EMR[]) private emrs;\n\n   /**\n   * A user can specify, which service providers are allowed to view their medical records.\n   * Access is granted, when the user adds his address to service Providers list of patients.\n   * As soon as the user address is removed from the list, access for the service provider is revoked.\n   * mapping: patientAddress -> ServiceProviderAddresses\n   */\n  mapping (address => address[]) private serviceProvidersPermissions;\n\n  /**\n   * Add a medical record.\n   * Returns true if add or false if not.\n   */\n  function addEmr(address owner, TypeEmr typeEmr, StatusEmr statuseEmr, string memory time, string memory data) public {\n    address writer = msg.sender;\n\n    // check if owner != writer \n    require(writer != owner,'You can not add to yourself');\n    // check if service provider as a permission \n    bool serviceProviderPermission = false;\n\n    for(uint i=0; i<serviceProvidersPermissions[owner].length; i++){\n      if(serviceProvidersPermissions[owner][i] == writer){\n        serviceProviderPermission = true;\n      }\n    }\n    require(serviceProviderPermission,'Permission needed');\n    emrs[owner].push(EMR(emrs[owner].length +1,msg.sender, owner, typeEmr, statuseEmr, time, data));\n    //trigger \n    emit EmrAdded(emrs[owner].length +1,msg.sender, owner, typeEmr, statuseEmr, time, data); // call the event\n  }\n \n  /**\n   * Get all medical records of a user.\n   */\n  function getMrc(address user) public view returns (EMR[] memory) {\n    address from = msg.sender;\n    bool serviceProviderPermission = false;\n\n    for(uint i=0; i<serviceProvidersPermissions[user].length; i++){\n      if(serviceProvidersPermissions[user][i] == from){\n        serviceProviderPermission = true;\n      }\n    }\n    // get MrC of the user, if owner is the ask or the ask get permission from the owner\n    require(from == user || serviceProviderPermission, \"You needed permission\");\n    return emrs[user];\n  }\n\n  /**\n   * Allow a service provider to view all your documents.\n   */\n  function giveAccessToServiceProvider(address serviceProvider) public {\n    bool serviceProviderPermissionExist = false;\n    address from = msg.sender;\n\n    require(serviceProvider != from,'you can not add yourself');\n    \n    for(uint i=0; i<serviceProvidersPermissions[from].length; i++){\n      if(serviceProvidersPermissions[from][i] == from){\n        serviceProviderPermissionExist = true;\n      }\n    }\n    require(!serviceProviderPermissionExist,'service provider has permission already');\n    serviceProvidersPermissions[from].push(serviceProvider);\n    emit ServiceProviderPermissionCall(from,serviceProvider,true); //call event\n  }\n\n  /**\n   * Revoke a service provider access to your documents.\n   */\n  function revokeAccessFromDoctor(address serviceProvider) public {\n    address from = msg.sender; \n    int indexRemove = -1;\n    for(uint i; i<serviceProvidersPermissions[from].length; i++){\n      if(serviceProvider == serviceProvidersPermissions[from][i]){\n        indexRemove = int(i);\n      }\n    }\n\n    require(indexRemove != -1, 'This service provider not have permission already');\n\n    address[] memory arrayNew = new address[](serviceProvidersPermissions[from].length-1);\n    for (uint i = 0; i<arrayNew.length; i++){\n      if(i != uint(indexRemove) && i< uint(indexRemove)){\n        arrayNew[i] = serviceProvidersPermissions[from][i];\n      }\n      else {\n        arrayNew[i] = serviceProvidersPermissions[from][i+1];\n      }\n    }\n    delete serviceProvidersPermissions[from];\n    serviceProvidersPermissions[from] = arrayNew;\n    emit ServiceProviderPermissionCall(from,serviceProvider,false); //call event\n  }\n\n  /**\n   * Returns all the service provider addresses that the patient gave access.\n   */\n  function getServiceProviderPermissions() public view returns (address[] memory) {\n    return serviceProvidersPermissions[msg.sender];\n  }\n\n  /**\n   * Check if serive provider has permission.\n   */\n  function havePermission(address patient) public view returns(bool){\n    \n    bool hasPermission = false;\n    for(uint i; i< serviceProvidersPermissions[patient].length;i++){\n      if(msg.sender == serviceProvidersPermissions[patient][i]){\n        hasPermission = true;\n      }\n    }\n    \n    return hasPermission;\n  }\n/** \n   //Returns all the service provider addresses that the patient gave access.\n   \n   function hisServiceProvider() public view returns(bool){\n\n     address s = msg.sender;\n\n     if(s == 0xbdAd07B27DA31E92AE1C4AD9353563658ed4BF00){\n       return true;\n     }\n     else if(s == 0x70dd15C82Ec01a955aB2e72e32C1813Ac700Fe22){\n       return true;\n     }\n     return false;\n   }\n*/\n\n} // end of contruct ",
  "sourcePath": "C:/Users/shaii/Desktop/projects/MrC/src/contracts/Permissions.sol",
  "compiler": {
    "name": "solc",
    "version": "0.5.0+commit.1d4f565a.Emscripten.clang"
  },
  "schemaVersion": "3.0.2",
  "updatedAt": "2021-09-26T12:01:01.424Z",
  "devdoc": {
    "methods": {}
  },
  "userdoc": {
    "methods": {
      "addEmr(address,uint8,uint8,string,string)": {
        "notice": "Add a medical record. Returns true if add or false if not."
      },
      "getMrc(address)": {
        "notice": "Get all medical records of a user."
      },
      "getServiceProviderPermissions()": {
        "notice": "Returns all the service provider addresses that the patient gave access."
      },
      "giveAccessToServiceProvider(address)": {
        "notice": "Allow a service provider to view all your documents."
      },
      "havePermission(address)": {
        "notice": "Check if serive provider has permission."
      },
      "revokeAccessFromDoctor(address)": {
        "notice": "Revoke a service provider access to your documents."
      }
    }
  }
}