{
  "contractName": "Permissions",
  "abi": [
    {
      "constant": true,
      "inputs": [
        {
          "name": "",
          "type": "address"
        },
        {
          "name": "",
          "type": "uint256"
        }
      ],
      "name": "serviceProvidersPermissions",
      "outputs": [
        {
          "name": "",
          "type": "address"
        }
      ],
      "payable": false,
      "stateMutability": "view",
      "type": "function"
    },
    {
      "constant": true,
      "inputs": [
        {
          "name": "",
          "type": "address"
        },
        {
          "name": "",
          "type": "uint256"
        }
      ],
      "name": "emrs",
      "outputs": [
        {
          "name": "emrId",
          "type": "uint256"
        },
        {
          "name": "writer",
          "type": "address"
        },
        {
          "name": "owner",
          "type": "address"
        },
        {
          "name": "typeEmr",
          "type": "uint8"
        },
        {
          "name": "statusEmr",
          "type": "uint8"
        },
        {
          "name": "time",
          "type": "string"
        },
        {
          "name": "data",
          "type": "string"
        }
      ],
      "payable": false,
      "stateMutability": "view",
      "type": "function"
    },
    {
      "constant": false,
      "inputs": [
        {
          "name": "owner",
          "type": "address"
        },
        {
          "name": "typeEmr",
          "type": "uint8"
        },
        {
          "name": "statuseEmr",
          "type": "uint8"
        },
        {
          "name": "time",
          "type": "string"
        },
        {
          "name": "data",
          "type": "string"
        }
      ],
      "name": "addEmr",
      "outputs": [],
      "payable": false,
      "stateMutability": "nonpayable",
      "type": "function"
    },
    {
      "constant": true,
      "inputs": [
        {
          "name": "user",
          "type": "address"
        }
      ],
      "name": "getMrc",
      "outputs": [
        {
          "components": [
            {
              "name": "emrId",
              "type": "uint256"
            },
            {
              "name": "writer",
              "type": "address"
            },
            {
              "name": "owner",
              "type": "address"
            },
            {
              "name": "typeEmr",
              "type": "uint8"
            },
            {
              "name": "statusEmr",
              "type": "uint8"
            },
            {
              "name": "time",
              "type": "string"
            },
            {
              "name": "data",
              "type": "string"
            }
          ],
          "name": "",
          "type": "tuple[]"
        }
      ],
      "payable": false,
      "stateMutability": "view",
      "type": "function"
    },
    {
      "constant": false,
      "inputs": [
        {
          "name": "serviceProvider",
          "type": "address"
        }
      ],
      "name": "giveAccessToServiceProvider",
      "outputs": [],
      "payable": false,
      "stateMutability": "nonpayable",
      "type": "function"
    },
    {
      "constant": false,
      "inputs": [
        {
          "name": "serviceProvider",
          "type": "address"
        }
      ],
      "name": "revokeAccessFromDoctor",
      "outputs": [],
      "payable": false,
      "stateMutability": "nonpayable",
      "type": "function"
    },
    {
      "constant": true,
      "inputs": [],
      "name": "getServiceProviderPermissions",
      "outputs": [
        {
          "name": "",
          "type": "address[]"
        }
      ],
      "payable": false,
      "stateMutability": "view",
      "type": "function"
    }
  ],
  "bytecode": "0x608060405234801561001057600080fd5b50611e21806100206000396000f3fe608060405260043610610083576000357c0100000000000000000000000000000000000000000000000000000000900463ffffffff1680630b2e898b146100885780632f845bab146100b357806331a4a7cc146100f0578063472d652a146101195780635d0e788314610156578063629e559d1461017f578063ad2eb6be146101a8575b600080fd5b34801561009457600080fd5b5061009d6101eb565b6040516100aa9190611aab565b60405180910390f35b3480156100bf57600080fd5b506100da60048036036100d5919081019061166d565b6102b6565b6040516100e79190611acd565b60405180910390f35b3480156100fc57600080fd5b5061011760048036036101129190810190611696565b610739565b005b34801561012557600080fd5b50610140600480360361013b919081019061173d565b610b56565b60405161014d9190611a90565b60405180910390f35b34801561016257600080fd5b5061017d6004803603610178919081019061166d565b610ba3565b005b34801561018b57600080fd5b506101a660048036036101a1919081019061166d565b610e16565b005b3480156101b457600080fd5b506101cf60048036036101ca919081019061173d565b61124c565b6040516101e29796959493929190611b8f565b60405180910390f35b6060600160003373ffffffffffffffffffffffffffffffffffffffff1673ffffffffffffffffffffffffffffffffffffffff1681526020019081526020016000208054806020026020016040519081016040528092919081815260200182805480156102ac57602002820191906000526020600020905b8160009054906101000a900473ffffffffffffffffffffffffffffffffffffffff1673ffffffffffffffffffffffffffffffffffffffff1681526020019060010190808311610262575b5050505050905090565b60606000339050600080905060008090505b600160008673ffffffffffffffffffffffffffffffffffffffff1673ffffffffffffffffffffffffffffffffffffffff168152602001908152602001600020805490508110156103ce578273ffffffffffffffffffffffffffffffffffffffff16600160008773ffffffffffffffffffffffffffffffffffffffff1673ffffffffffffffffffffffffffffffffffffffff1681526020019081526020016000208281548110151561037557fe5b9060005260206000200160009054906101000a900473ffffffffffffffffffffffffffffffffffffffff1673ffffffffffffffffffffffffffffffffffffffff1614156103c157600191505b80806001019150506102c8565b508373ffffffffffffffffffffffffffffffffffffffff168273ffffffffffffffffffffffffffffffffffffffff1614806104065750805b1515610447576040517f08c379a000000000000000000000000000000000000000000000000000000000815260040161043e90611aef565b60405180910390fd5b6000808573ffffffffffffffffffffffffffffffffffffffff1673ffffffffffffffffffffffffffffffffffffffff168152602001908152602001600020805480602002602001604051908101604052809291908181526020016000905b8282101561072c578382906000526020600020906005020160e06040519081016040529081600082015481526020016001820160009054906101000a900473ffffffffffffffffffffffffffffffffffffffff1673ffffffffffffffffffffffffffffffffffffffff1673ffffffffffffffffffffffffffffffffffffffff1681526020016002820160009054906101000a900473ffffffffffffffffffffffffffffffffffffffff1673ffffffffffffffffffffffffffffffffffffffff1673ffffffffffffffffffffffffffffffffffffffff1681526020016002820160149054906101000a900460ff16600981111561059d57fe5b60098111156105a857fe5b81526020016002820160159054906101000a900460ff1660028111156105ca57fe5b60028111156105d557fe5b8152602001600382018054600181600116156101000203166002900480601f0160208091040260200160405190810160405280929190818152602001828054600181600116156101000203166002900480156106725780601f1061064757610100808354040283529160200191610672565b820191906000526020600020905b81548152906001019060200180831161065557829003601f168201915b50505050508152602001600482018054600181600116156101000203166002900480601f0160208091040260200160405190810160405280929190818152602001828054600181600116156101000203166002900480156107145780601f106106e957610100808354040283529160200191610714565b820191906000526020600020905b8154815290600101906020018083116106f757829003601f168201915b505050505081525050815260200190600101906104a5565b5050505092505050919050565b60003390508573ffffffffffffffffffffffffffffffffffffffff168173ffffffffffffffffffffffffffffffffffffffff16141515156107af576040517f08c379a00000000000000000000000000000000000000000000000000000000081526004016107a690611b0f565b60405180910390fd5b600080905060008090505b600160008973ffffffffffffffffffffffffffffffffffffffff1673ffffffffffffffffffffffffffffffffffffffff168152602001908152602001600020805490508110156108c0578273ffffffffffffffffffffffffffffffffffffffff16600160008a73ffffffffffffffffffffffffffffffffffffffff1673ffffffffffffffffffffffffffffffffffffffff1681526020019081526020016000208281548110151561086757fe5b9060005260206000200160009054906101000a900473ffffffffffffffffffffffffffffffffffffffff1673ffffffffffffffffffffffffffffffffffffffff1614156108b357600191505b80806001019150506107ba565b50801515610903576040517f08c379a00000000000000000000000000000000000000000000000000000000081526004016108fa90611b4f565b60405180910390fd5b6000808873ffffffffffffffffffffffffffffffffffffffff1673ffffffffffffffffffffffffffffffffffffffff16815260200190815260200160002060e06040519081016040528060016000808c73ffffffffffffffffffffffffffffffffffffffff1673ffffffffffffffffffffffffffffffffffffffff168152602001908152602001600020805490500181526020013373ffffffffffffffffffffffffffffffffffffffff1681526020018973ffffffffffffffffffffffffffffffffffffffff1681526020018860098111156109db57fe5b81526020018760028111156109ec57fe5b815260200186815260200185815250908060018154018082558091505090600182039060005260206000209060050201600090919290919091506000820151816000015560208201518160010160006101000a81548173ffffffffffffffffffffffffffffffffffffffff021916908373ffffffffffffffffffffffffffffffffffffffff16021790555060408201518160020160006101000a81548173ffffffffffffffffffffffffffffffffffffffff021916908373ffffffffffffffffffffffffffffffffffffffff16021790555060608201518160020160146101000a81548160ff02191690836009811115610ae257fe5b021790555060808201518160020160156101000a81548160ff02191690836002811115610b0b57fe5b021790555060a0820151816003019080519060200190610b2c929190611434565b5060c0820151816004019080519060200190610b49929190611434565b5050505050505050505050565b600160205281600052604060002081815481101515610b7157fe5b906000526020600020016000915091509054906101000a900473ffffffffffffffffffffffffffffffffffffffff1681565b600080905060003390508073ffffffffffffffffffffffffffffffffffffffff168373ffffffffffffffffffffffffffffffffffffffff1614151515610c1e576040517f08c379a0000000000000000000000000000000000000000000000000000000008152600401610c1590611b2f565b60405180910390fd5b60008090505b600160008373ffffffffffffffffffffffffffffffffffffffff1673ffffffffffffffffffffffffffffffffffffffff16815260200190815260200160002080549050811015610d2a578173ffffffffffffffffffffffffffffffffffffffff16600160008473ffffffffffffffffffffffffffffffffffffffff1673ffffffffffffffffffffffffffffffffffffffff16815260200190815260200160002082815481101515610cd157fe5b9060005260206000200160009054906101000a900473ffffffffffffffffffffffffffffffffffffffff1673ffffffffffffffffffffffffffffffffffffffff161415610d1d57600192505b8080600101915050610c24565b5081151515610d6e576040517f08c379a0000000000000000000000000000000000000000000000000000000008152600401610d6590611b6f565b60405180910390fd5b600160008273ffffffffffffffffffffffffffffffffffffffff1673ffffffffffffffffffffffffffffffffffffffff1681526020019081526020016000208390806001815401808255809150509060018203906000526020600020016000909192909190916101000a81548173ffffffffffffffffffffffffffffffffffffffff021916908373ffffffffffffffffffffffffffffffffffffffff16021790555050505050565b600033905060007fffffffffffffffffffffffffffffffffffffffffffffffffffffffffffffffff905060005b600160008473ffffffffffffffffffffffffffffffffffffffff1673ffffffffffffffffffffffffffffffffffffffff16815260200190815260200160002080549050811015610f4857600160008473ffffffffffffffffffffffffffffffffffffffff1673ffffffffffffffffffffffffffffffffffffffff16815260200190815260200160002081815481101515610ed957fe5b9060005260206000200160009054906101000a900473ffffffffffffffffffffffffffffffffffffffff1673ffffffffffffffffffffffffffffffffffffffff168473ffffffffffffffffffffffffffffffffffffffff161415610f3b578091505b8080600101915050610e43565b507fffffffffffffffffffffffffffffffffffffffffffffffffffffffffffffffff8114151561124757606060018060008573ffffffffffffffffffffffffffffffffffffffff1673ffffffffffffffffffffffffffffffffffffffff1681526020019081526020016000208054905003604051908082528060200260200182016040528015610fe75781602001602082028038833980820191505090505b50905060008090505b81518110156111a55782811415801561100857508281105b156110d357600160008573ffffffffffffffffffffffffffffffffffffffff1673ffffffffffffffffffffffffffffffffffffffff1681526020019081526020016000208181548110151561105957fe5b9060005260206000200160009054906101000a900473ffffffffffffffffffffffffffffffffffffffff16828281518110151561109257fe5b9060200190602002019073ffffffffffffffffffffffffffffffffffffffff16908173ffffffffffffffffffffffffffffffffffffffff1681525050611198565b600160008573ffffffffffffffffffffffffffffffffffffffff1673ffffffffffffffffffffffffffffffffffffffff1681526020019081526020016000206001820181548110151561112257fe5b9060005260206000200160009054906101000a900473ffffffffffffffffffffffffffffffffffffffff16828281518110151561115b57fe5b9060200190602002019073ffffffffffffffffffffffffffffffffffffffff16908173ffffffffffffffffffffffffffffffffffffffff16815250505b8080600101915050610ff0565b50600160008473ffffffffffffffffffffffffffffffffffffffff1673ffffffffffffffffffffffffffffffffffffffff16815260200190815260200160002060006111f191906114b4565b80600160008573ffffffffffffffffffffffffffffffffffffffff1673ffffffffffffffffffffffffffffffffffffffff16815260200190815260200160002090805190602001906112449291906114d5565b50505b505050565b60006020528160005260406000208181548110151561126757fe5b9060005260206000209060050201600091509150508060000154908060010160009054906101000a900473ffffffffffffffffffffffffffffffffffffffff16908060020160009054906101000a900473ffffffffffffffffffffffffffffffffffffffff16908060020160149054906101000a900460ff16908060020160159054906101000a900460ff1690806003018054600181600116156101000203166002900480601f01602080910402602001604051908101604052809291908181526020018280546001816001161561010002031660029004801561138c5780601f106113615761010080835404028352916020019161138c565b820191906000526020600020905b81548152906001019060200180831161136f57829003601f168201915b505050505090806004018054600181600116156101000203166002900480601f01602080910402602001604051908101604052809291908181526020018280546001816001161561010002031660029004801561142a5780601f106113ff5761010080835404028352916020019161142a565b820191906000526020600020905b81548152906001019060200180831161140d57829003601f168201915b5050505050905087565b828054600181600116156101000203166002900490600052602060002090601f016020900481019282601f1061147557805160ff19168380011785556114a3565b828001600101855582156114a3579182015b828111156114a2578251825591602001919060010190611487565b5b5090506114b0919061155f565b5090565b50805460008255906000526020600020908101906114d2919061155f565b50565b82805482825590600052602060002090810192821561154e579160200282015b8281111561154d5782518260006101000a81548173ffffffffffffffffffffffffffffffffffffffff021916908373ffffffffffffffffffffffffffffffffffffffff160217905550916020019190600101906114f5565b5b50905061155b9190611584565b5090565b61158191905b8082111561157d576000816000905550600101611565565b5090565b90565b6115c491905b808211156115c057600081816101000a81549073ffffffffffffffffffffffffffffffffffffffff02191690555060010161158a565b5090565b90565b60006115d38235611d22565b905092915050565b60006115e78235611d34565b905092915050565b60006115fb8235611d4d565b905092915050565b600082601f830112151561161657600080fd5b813561162961162482611c39565b611c0c565b9150808252602083016020830185838301111561164557600080fd5b611650838284611d94565b50505092915050565b60006116658235611d66565b905092915050565b60006020828403121561167f57600080fd5b600061168d848285016115c7565b91505092915050565b600080600080600060a086880312156116ae57600080fd5b60006116bc888289016115c7565b95505060206116cd888289016115ef565b94505060406116de888289016115db565b935050606086013567ffffffffffffffff8111156116fb57600080fd5b61170788828901611603565b925050608086013567ffffffffffffffff81111561172457600080fd5b61173088828901611603565b9150509295509295909350565b6000806040838503121561175057600080fd5b600061175e858286016115c7565b925050602061176f85828601611659565b9150509250929050565b61178281611cba565b82525050565b600061179382611c7f565b8084526020840193506117a583611c65565b60005b828110156117d7576117bb868351611779565b6117c482611ca0565b91506020860195506001810190506117a8565b50849250505092915050565b60006117ee82611c8a565b8084526020840193508360208202850161180785611c72565b60005b848110156118405783830388526118228383516119de565b925061182d82611cad565b915060208801975060018101905061180a565b508196508694505050505092915050565b61185a81611d70565b82525050565b61186981611d82565b82525050565b600061187a82611c95565b80845261188e816020860160208601611da3565b61189781611dd6565b602085010191505092915050565b6000601582527f596f75206e6565646564207065726d697373696f6e00000000000000000000006020830152604082019050919050565b6000601b82527f596f752063616e206e6f742061646420746f20796f757273656c6600000000006020830152604082019050919050565b6000601882527f796f752063616e206e6f742061646420796f757273656c6600000000000000006020830152604082019050919050565b6000601182527f5065726d697373696f6e206e65656465640000000000000000000000000000006020830152604082019050919050565b6000602782527f736572766963652070726f766964657220686173207065726d697373696f6e2060208301527f616c7265616479000000000000000000000000000000000000000000000000006040830152606082019050919050565b600060e0830160008301516119f66000860182611a81565b506020830151611a096020860182611779565b506040830151611a1c6040860182611779565b506060830151611a2f6060860182611860565b506080830151611a426080860182611851565b5060a083015184820360a0860152611a5a828261186f565b91505060c083015184820360c0860152611a74828261186f565b9150508091505092915050565b611a8a81611d18565b82525050565b6000602082019050611aa56000830184611779565b92915050565b60006020820190508181036000830152611ac58184611788565b905092915050565b60006020820190508181036000830152611ae781846117e3565b905092915050565b60006020820190508181036000830152611b08816118a5565b9050919050565b60006020820190508181036000830152611b28816118dc565b9050919050565b60006020820190508181036000830152611b4881611913565b9050919050565b60006020820190508181036000830152611b688161194a565b9050919050565b60006020820190508181036000830152611b8881611981565b9050919050565b600060e082019050611ba4600083018a611a81565b611bb16020830189611779565b611bbe6040830188611779565b611bcb6060830187611860565b611bd86080830186611851565b81810360a0830152611bea818561186f565b905081810360c0830152611bfe818461186f565b905098975050505050505050565b6000604051905081810181811067ffffffffffffffff82111715611c2f57600080fd5b8060405250919050565b600067ffffffffffffffff821115611c5057600080fd5b601f19601f8301169050602081019050919050565b6000602082019050919050565b6000602082019050919050565b600081519050919050565b600081519050919050565b600081519050919050565b6000602082019050919050565b6000602082019050919050565b6000611cc582611cf8565b9050919050565b6000600382101515611cda57fe5b819050919050565b6000600a82101515611cf057fe5b819050919050565b600073ffffffffffffffffffffffffffffffffffffffff82169050919050565b6000819050919050565b6000611d2d82611cf8565b9050919050565b6000600382101515611d4557600080fd5b819050919050565b6000600a82101515611d5e57600080fd5b819050919050565b6000819050919050565b6000611d7b82611ccc565b9050919050565b6000611d8d82611ce2565b9050919050565b82818337600083830152505050565b60005b83811015611dc1578082015181840152602081019050611da6565b83811115611dd0576000848401525b50505050565b6000601f19601f830116905091905056fea265627a7a72305820bb57364b31acfa4f2f87a7fc6c51a4fc546c51a374c53a72761518762de060066c6578706572696d656e74616cf50037",
  "source": "//SPDX-License-Identifier: MIT\npragma solidity >=0.5.0;\n//ABIEncoderV2 is needed to return an array from a function. is Experimental!! \npragma experimental ABIEncoderV2;\n\ncontract Permissions {\n\n  enum TypeEmr{\n    LABORATORY_TEST_RESULTS,\n    REFERENCES,\n    MEDICATIONS_AND_PRESCRIPTIONS,\n    IMAGING_TEST_RESULTS,\n    YOUR_DIAGNOSES,\n    YOUR_SENSITIVITY,\n    THE_VACCINES_YOU_DID,\n    MEDICAL_RECOMMENDATIONS,\n    CERTIFICATES_OF_ILLNESS,\n    MEDICAL_INFORMATION_SUMMARY\n  }\n\n  enum StatusEmr {\n    VALID, EXPIRED, BOUGHT\n  }\n\n  struct EMR {\n    uint emrId;\n    address writer;\n    address owner;  \n    TypeEmr typeEmr; \n    StatusEmr statusEmr;\n    string time;\n    string data;\n  }\n\n  /* Every user has a list of EMRs. */\n  mapping (address => EMR[]) public emrs;\n\n   /**\n   * A user can specify, which service providers are allowed to view their medical records.\n   * Access is granted, when the user adds his address to service Providers list of patients.\n   * As soon as the user address is removed from the list, access for the service provider is revoked.\n   * mapping: patientAddress -> ServiceProviderAddresses\n   */\n  mapping (address => address[]) public serviceProvidersPermissions;\n\n  /**\n   * Add a medical record.\n   * Returns true if add or false if not.\n   */\n  function addEmr(address owner, TypeEmr typeEmr, StatusEmr statuseEmr, string memory time, string memory data) public {\n    address writer = msg.sender;\n\n    // check if owner != writer \n    require(writer != owner,'You can not add to yourself');\n    // check if service provider as a permission \n    bool serviceProviderPermission = false;\n\n    for(uint i=0; i<serviceProvidersPermissions[owner].length; i++){\n      if(serviceProvidersPermissions[owner][i] == writer){\n        serviceProviderPermission = true;\n      }\n    }\n    require(serviceProviderPermission,'Permission needed');\n    emrs[owner].push(EMR(emrs[owner].length +1,msg.sender, owner, typeEmr, statuseEmr, time, data));\n  }\n \n  /**\n   * Get all medical records of a user.\n   */\n  function getMrc(address user) public view returns (EMR[] memory) {\n    address from = msg.sender;\n    bool serviceProviderPermission = false;\n\n    for(uint i=0; i<serviceProvidersPermissions[user].length; i++){\n      if(serviceProvidersPermissions[user][i] == from){\n        serviceProviderPermission = true;\n      }\n    }\n    // get MrC of the user, if owner is the ask or the ask get permission from the owner\n    require(from == user || serviceProviderPermission, \"You needed permission\");\n    return emrs[user];\n  }\n\n  /**\n   * Allow a service provider to view all your documents.\n   */\n  function giveAccessToServiceProvider(address serviceProvider) public {\n    bool serviceProviderPermissionExist = false;\n    address from = msg.sender;\n\n    require(serviceProvider != from,'you can not add yourself');\n    \n    for(uint i=0; i<serviceProvidersPermissions[from].length; i++){\n      if(serviceProvidersPermissions[from][i] == from){\n        serviceProviderPermissionExist = true;\n      }\n    }\n    require(!serviceProviderPermissionExist,'service provider has permission already');\n    serviceProvidersPermissions[from].push(serviceProvider);\n  }\n\n  /**\n   * Revoke a service provider access to your documents.\n   */\n  function revokeAccessFromDoctor(address serviceProvider) public {\n    address from = msg.sender; \n    int indexRemove = -1;\n    for(uint i; i<serviceProvidersPermissions[from].length; i++){\n      if(serviceProvider == serviceProvidersPermissions[from][i]){\n        indexRemove = int(i);\n      }\n    }\n    if(indexRemove != -1){\n      address[] memory arrayNew = new address[](serviceProvidersPermissions[from].length-1);\n      for (uint i = 0; i<arrayNew.length; i++){\n        if(i != uint(indexRemove) && i< uint(indexRemove)){\n          arrayNew[i] = serviceProvidersPermissions[from][i];\n        }\n        else {\n          arrayNew[i] = serviceProvidersPermissions[from][i+1];\n        }\n      }\n      delete serviceProvidersPermissions[from];\n      serviceProvidersPermissions[from] = arrayNew;\n    }\n  }\n\n  /**\n   * Returns all the service provider addresses that the patient gave access.\n   */\n  function getServiceProviderPermissions() public view returns (address[] memory) {\n    return serviceProvidersPermissions[msg.sender];\n  }\n} // end of contruct ",
  "sourcePath": "C:/Users/shaii/Desktop/projects/MrC/src/contracts/Permissions.sol",
  "compiler": {
    "name": "solc",
    "version": "0.5.0+commit.1d4f565a.Emscripten.clang"
  },
  "schemaVersion": "3.0.2",
  "updatedAt": "2021-04-27T11:19:49.100Z",
  "devdoc": {
    "methods": {}
  },
  "userdoc": {
    "methods": {
      "addEmr(address,uint8,uint8,string,string)": {
        "notice": "Add a medical record. Returns true if add or false if not."
      },
      "getMrc(address)": {
        "notice": "Get all medical records of a user."
      },
      "getServiceProviderPermissions()": {
        "notice": "Returns all the service provider addresses that the patient gave access."
      },
      "giveAccessToServiceProvider(address)": {
        "notice": "Allow a service provider to view all your documents."
      },
      "revokeAccessFromDoctor(address)": {
        "notice": "Revoke a service provider access to your documents."
      }
    }
  }
}